:020000040800F2
:1000000038BE0020A1B0000835AE000837AE0008A9
:100010003BAE00083FAE000843AE00080000000001
:1000200000000000000000000000000047AE0008D3
:1000300049AE0008000000004BAE00084DAE0008BD
:10004000BBB00008BBB00008BBB00008BBB00008E4
:10005000BBB00008BBB00008BBB00008BBB00008D4
:10006000BBB00008BBB00008BBB00008BBB00008C4
:10007000BBB00008BBB00008BBB00008BBB00008B4
:10008000BBB00008BBB00008BBB00008BBB00008A4
:10009000BBB00008BBB00008BBB00008BBB0000894
:1000A000BBB000088DD80008BBB00008BBB000088A
:1000B000BBB00008BBB00008BBB00008BBB0000874
:1000C000BBB00008BBB00008BBB00008BBB0000864
:1000D000BBB0000803AD0008BBB0000845890008AC
:1000E000BBB00008BBB00008BBB00008BBB0000844
:1000F000BBB00008BBB00008BBB00008BBB0000834
:10010000BBB00008BBB00008BBB00008BBB0000823
:10011000BBB00008BBB00008BBB00008BBB0000813
:10012000BBB00008BBB00008BBB00008BBB0000803
:1001300000F002F800F067F80AA090E8000C824492
:100140008344AAF10107DA4501D100F05CF8AFF26F
:10015000090EBAE80F0013F0010F18BFFB1A43F0A5
:1001600001031847342F0100542F01000A444FF0B7
:10017000000C10F8013B13F0070408BF10F8014B06
:100180001D1108BF10F8015B641E05D010F8016B4B
:10019000641E01F8016BF9D113F0080F1EBF10F8AF
:1001A000014BAD1C0C1B09D16D1E58BF01F801CBD2
:1001B000FAD505E014F8016B01F8016B6D1EF9D555
:1001C0009142D6D37047000000230024002500266A
:1001D000103A28BF78C1FBD8520728BF30C148BFAA
:1001E0000B607047662911F0D080002070471FB562
:1001F0000EF054FA0400002000210FF0B7FEE0607A
:100200001FBD10B510BD0EF065FB1146FFF7EFFFE7
:1002100000F008F80EF083FB03B4FFF7F2FF03BC15
:100220000AF014FD4FF4A0600AF05AFF0AF0B3FC84
:100230000AF012FE4FF4E1300AF017FD4FF4E130FE
:100240000AF09CFD03F040FC03F0E0FB04F039FBF6
:1002500011490868804740F2CF2140F2CF7000F08A
:1002600053F887231A46962118460CF0CBFFC82076
:100270000AF0BEFC41F61F41312000F00FF80DF0EE
:1002800054FB00F07EFC05E00DF0A6FB00F062FEE2
:1002900000F0F8F8F8E70000A400002038B50546A3
:1002A0000C461748806940F400601549886115487C
:1002B0000580001F048013482038008840F00100AA
:1002C0001049203908800846008840F04000088026
:1002D0000C482C38008840F001000A492C3908806D
:1002E00019208DF8000002208DF8010000208DF803
:1002F000020001208DF8030068460AF0F6FE38BDC2
:10030000001002402C2C014030B589B005460C4647
:10031000012108460BF07BFA012104200BF06AFA58
:100320000F20ADF8200018208DF8230003208DF851
:10033000220008A924480AF0A1FFADF81850ADF832
:1003400014400020ADF81A00ADF8160005A94FF0D2
:1003500080400BF08BFD012188070CF0E3F9602051
:10036000ADF804000120ADF806000020ADF80A0049
:10037000ADF80C004FF48070ADF8100001A98005B5
:100380000BF0B1FD0020ADF80A0001A94FF080404C
:100390000BF0EBFD0020ADF80A0001A94FF0804002
:1003A0000BF030FE0020ADF80A0001A94FF08040AC
:1003B0000BF073FE012188070CF0B4F801218807C7
:1003C0000CF0BCF809B030BD00080140BD49088000
:1003D00000BFBC49091F098801F040010029F8D07D
:1003E000704700B50022FB20FFF7F0FF6D20FFF7FC
:1003F000EDFF2520FFF7EAFF501F42B202F16D002A
:1004000042B202F1250042B2002309E0AE49C85CC5
:10041000FFF7DCFFAC48C05C104442B2581C43B24A
:10042000AA4800788342F1DBD0B2FFF7CFFF00BDCE
:1004300030B50A46CB1701EB1363C3F30723A24C75
:1004400004F81030CB1701EB13631B12A1EB03234D
:10045000012404EB40049C4D2B5530BD00B50A210E
:100460000020FFF7E5FF0A210120FFF7E1FF0A2145
:100470000220FFF7DDFF0A210320FFF7D9FFFFF776
:10048000B0FF00BD70B59248008800F4004000281D
:100490007DD0022406E08F48005D30388D49085534
:1004A000601CC4B2062CF6DD8A480078502854D16E
:1004B0008848407850281FD1864989786422514362
:1004C000844AD27802EB820201EB4201814A12791E
:1004D000881810F04DFD80490860084600687F4983
:1004E00008607D49086810F071FB05462A460B46F6
:1004F0007BA00DF095FDE0E0764840785828FAD1D1
:10050000744989784FF47A725143724A127902EB36
:10051000C20303EB021201EB82016E4A527902EB35
:10052000820201EB42016B4A9279881810F020FD9B
:100530000546734910F0EAFB7249086008460068F6
:10054000714908606F49086810F040FB05462A466B
:100550000B466EA00DF064FDAFE05E4800784928C0
:1005600051D15C484078502825D15A498978642275
:100570005143584A127902EB820201EB4201554A7B
:100580005279881810F0F4FC0546674900E098E0BD
:1005900010F0BCFB50494860084640684F4948602D
:1005A0004D49486810F012FB05462A460B465FA0ED
:1005B0000DF036FD81E04748407858287DD1454907
:1005C000897864225143434A127902EB820201EB9B
:1005D0004201404A5279881810F0CAFC0546524937
:1005E00010F094FB47494860084640684649486017
:1005F0004449486810F0EAFA05462A460B4653A0DB
:100600000DF00EFD59E03348007844284BD13148B5
:10061000407850281FD12F498978642251432D4AB0
:10062000D27802EB820201EB42012A4A1279881841
:1006300010F09EFC28498860084680682749886039
:100640002549886810F0C2FA05462A460B4646A09E
:100650000DF0E6FC31E01F48407858282DD11D49A7
:100660008978642251431B4A127902EB820201EB22
:100670004201184A5279881810F07AFC05462A4936
:1006800010F044FB1F498860084680681E49886056
:100690001C49886810F09AFA05462A460B463AA08B
:1006A0000DF0BEFC09E00B480078432805D13DA0C1
:1006B0000DF0B6FC3CA00DF0B3FC0020044908800E
:1006C00000BF70BD04380140A001002000000020E0
:1006D000E400002068B6002030B7002054B70020A6
:1006E0000D0A70697463685F616E676C655F50497D
:1006F00044202D503A25342E32660D0A00000000A9
:1007000000007A4478B700209CB700200D0A706979
:100710007463685F726174655F504944202D503A7C
:1007200025312E33660D0A000000C8420D0A70699B
:100730007463685F616E676C655F504944202D4942
:100740003A25342E32660D0A000000000D0A706949
:100750007463685F726174655F504944202D493A43
:1007600025342E32660D0A000D0A70697463685FC5
:10077000616E676C655F504944202D443A25342EE4
:1007800032660D0A000000000D0A70697463685F2C
:10079000726174655F504944202D443A25342E32ED
:1007A000660D0A000D0A0000CFB5CDB3D2BBC7D08D
:1007B000B9A4D7F7D5FDB3A3202D2028303131308F
:1007C00029283031313029283031313029202D206D
:1007D0000D0A00002DE9F74F90B0164600244FF0A7
:1007E000E60840F2DF154FF4EB700F904FF07E51AA
:1007F000119810F017FA1190F949109810F0E4FCD4
:1008000001D8F7481090F749119810F0DDFC01D895
:10081000F4481190F4480168109810F039FB09D1A0
:10082000F2481199006810F033FB03D1F0480078CA
:10083000B0427DD0EC4910980860EC4911980860EE
:10084000EB480670291B481CC11700EB917104EBA3
:10085000A1011FFA81F9291B481C00EBD07109EB9B
:10086000610189B20E910F99A1EB080000EBD071E4
:1008700008EB61011FFA81FAD346119810F0A6F92E
:10088000DC4ADD4BCDE900010FF090FE0022DB4B8E
:10089000CDE902010FF06EFC00224FF08043CDE95C
:1008A00004010FF067FCCDE906010FF075FB08901D
:1008B0000FF072FA0A90119810F088F9CD4ACE4BD9
:1008C000CDE900010FF072FE0022CC4BCDE9020110
:1008D0000FF050FC00224FF08043CDE904010FF0EF
:1008E00049FCCDE906010FF057FB08900FF046F9DF
:1008F00009900F98A0EB0800401CC21700EB927102
:100900000890881010F034FB0590109910F090FBBF
:10091000B349069010F0FAF9079010F009FB87B27E
:10092000384610F03DFB06900A9910F081FB00E07C
:10093000E9E04FF08041079010F07AFB089010F04A
:10094000F7FA80B20B900B9810F02AFB07900A99E7
:1009500010F06EFB089010F0EBFA80B20C900B9840
:1009600010F01EFB0790099910F062FB089010F040
:10097000DFFA80B20D90CEBB00200090281B0890BB
:1009800000EBD07004EB600082B2414620460F9B22
:1009900007F041FB0020291B0891009001EBD17169
:1009A00004EB6101491C88B22A4641460F9B07F0BF
:1009B00032FB002092490880281B089000EBD07081
:1009C00004EB600082B2414620460F9B07F008FC12
:1009D000291B089101EBD17104EB6101491C88B21C
:1009E0002A4641460F9B07F0FBFB62E0FFE7012E22
:1009F0002ED100200090281B089000EBD07004EB53
:100A0000600082B2414620460F9B07F004FB4FF680
:100A1000E0707B490880281B089000EBD07004EB45
:100A2000600082B2414620460F9B07F0D9FB0020B0
:100A300073490880291B089101EBD17104EB610116
:100A4000491C88B22A4641460F9B07F0C9FB30E09B
:100A5000022E2ED10020291B0891009001EBD171AC
:100A600004EB6101491C88B22A4641460F9B07F0FE
:100A7000D2FA002062490880281B089000EBD07051
:100A800004EB600082B2414620460F9B07F0A8FBB2
:100A90004FF6E0705A490880291B089101EBD1718B
:100AA00004EB6101491C88B22A4641460F9B07F0BE
:100AB00097FB48F23040524908800AEB070083B2A6
:100AC000AAEB070081B24A46484607F031FBABEB80
:100AD000070EDDF830C0F4441FFA8CF3DDE90DECAD
:100AE000F4441FFA8CF20BEB070EDDF830C0AEEBCE
:100AF0000C0C1FFA8CF1DDE90DECACEB0E0C1FFABF
:100B00008CF007F015FB13B0BDE8F08F2DE9F84F1E
:100B100006460C4617469846B81B401C1FFA80FA3A
:100B2000A8EB0400401C80B2009043463A462146A0
:100B3000304607F055FB4FF000090EE006EB070BBF
:100B40000BEBDB72C2F34F0004EB090291B203F02E
:100B5000A4FB09F105001FFA80F900988145EDDB3F
:100B600000250AE004EB080B0BEBDB70C0F34F0130
:100B7000284603F092FB681D85B25545F2DBBDE8BF
:100B8000F88F7CB5002003F06AFE00201D49088024
:100B90001D4802F00BFE1D4802F008FE00250BE088
:100BA00019494FF4967002F018FE18494FF49670E8
:100BB00002F013FE681CC5B2322DF1DB032314488A
:100BC000243007C800F015FE06231148483007C836
:100BD00000F00FFE0F480078002878D1002527E0AC
:100BE00000004842000034430C00002010000020A8
:100BF000140000204AD8124DFB21094000806640B5
:100C00009C0000209E000020C4010020D001002094
:100C1000180000200400002005EB4500F54901EB19
:100C200080062B4696E8070000F0E3FD681CC5B27D
:100C3000032DF1DB48F23040EF4908804FF41B737D
:100C400040F2DF128C210020FFF760FFEB480078B4
:100C50000A281AD2DFE800F00507090B0D0F11135F
:100C60001517E7A411E0E9A40FE0EBA40DE0EDA453
:100C70000BE0EFA409E0F1A407E0F3A405E0F5A47C
:100C800003E0F7A401E0F9A400BF00BF1820034669
:100C90006C226421CDE90004BA2007F056FCF6A0CE
:100CA00018210B469022CDE9001040F27621002059
:100CB00007F04BFCF4A018210B469022CDE9001060
:100CC00040F27621F02007F040FC52E0FFE7F248C6
:100CD000007801281BD104250BE005EB4500C54930
:100CE00001EB80042B4694E8070000F082FD681CAD
:100CF000C5B2062DF1DB4FF6E070BF49088040F227
:100D0000DF131A4678210020FFF700FF31E0E248A8
:100D1000007802282DD148F23040B7490880D6A08B
:100D200018210B469022CDE90010C821302007F091
:100D30000CFCD5A018210B469022CDE90010C8214B
:100D4000500007F002FC4FF6FF70AB4908801820F6
:100D500040F21E3340F2DF124FF407710090002082
:100D600000F090FE0122CD480168CD480068FFF7F1
:100D700031FD48F23040A0490880CAA018210B4636
:100D80009022CDE9001014214FF49E7007F0DDFB96
:100D9000C8A018210B469022CDE9001032214FF453
:100DA0009E7007F0D2FB7CBD2DE9F04705468846D2
:100DB00091461E46D8F80070002411E0B7F800A054
:100DC0007F683B88611C35F8111031448AB235F8D0
:100DD0001410314488B2514607F0AAF9601C84B25D
:100DE000A9F10100A042E9DCBDE8F0872DE9F05F40
:100DF00007460C4690461D46DDE90AB6B148007824
:100E0000012813D100200BE0A8EB0701491C414346
:100E1000322291FBF2F1AC4A22F81010411C88B248
:100E20003228F1DB0021A74A117000BF281B401CAB
:100E30001FFA80F9304606EBD0710BEB610101FB24
:100E400009F191FBF6F121441FFA81FA00206A4969
:100E50000880002332229D499B48FFF7A5FF4FF6EB
:100E6000E0706549088005F1320083B2A4F13200D8
:100E700081B242463846FFF749FE944802F0D2FC60
:100E80009249504602F0A9FC40F2FF705A4908808E
:100E9000002332228D498C48FFF786FFBDE8F09F82
:100EA0002DE9F05F07460C4690461D46DDE90AB67F
:100EB00087480078012813D100200BE0A8EB070138
:100EC000491C4143322291FBF2F1824A22F8101070
:100ED000411C88B23228F1DB00217D4A117000BF2D
:100EE000281B401C1FFA80F9304606EBD0710BEB33
:100EF000610101FB09F191FBF6F121441FFA81FA2E
:100F000000203D4908800023322273497148FFF7D1
:100F10004BFF4FF6E0703849088005F1320083B28C
:100F2000A4F1320081B242463846FFF7EFFD6A482D
:100F300002F078FC6849504602F04FFC4FF47840CC
:100F40002D4908800023322263496248FFF72CFFB5
:100F5000BDE8F09F7CB5614800784F490978884228
:100F600005D04D4800785D490870FFF70AFE4A48F1
:100F7000007801283BD11F4890F8390078B15849D2
:100F800008680FF0B9FF04465A2040F2AD1340F252
:100F9000DF12AA21CDE900400020FFF781FF1548AC
:100FA00090F8450078B14F4908680FF0A5FF044656
:100FB0005A2040F2AD1340F2DF12AA21CDE90040E1
:100FC0000020FFF713FF4FF6FF700B4908804448DD
:100FD000B0F9040000280BDB182000904048B0F95D
:100FE000042006231421BC2007F0F7F98FE0B2E0BB
:100FF0007AE00000180000209C0000201A01002068
:1010000020207E5E6F5E7E2020000000207E204F2C
:101010006E65207E20000000207E2054776F207EA9
:10102000200000007E205468726565207E0000006C
:101030007E20466F7572207E200000007E2046696B
:101040007665207E20000000207E20536978207E77
:10105000200000007E20536576656E207E00000033
:101060007E204569676874207E0000007E204E69FE
:101070006E65207E200000005377696E6720526104
:101080006469693A000000005377696E6720416E19
:10109000676C653A00000000040000204801002051
:1010A0004401002050697463683A202020204327BF
:1010B00000000000526F6C6C203A20202020432753
:1010C000000000000800002078020020D00100206D
:1010D0000700002014020020C401002005000020A9
:1010E0002801002030010020002018232D22142187
:1010F0000090BC2007F0DEF818200090E848B0F916
:101100000400424205231421C82007F066F9E5488F
:10111000B0F9040000280ADB18200090E148B0F97B
:10112000042006233221BC2007F057F907E10020F4
:1011300018232D2232210090BC2007F0BBF8182084
:101140000090D848B0F90400424205233221C8205B
:1011500007F043F9F3E0D448007800287ED1D34863
:101160000078D3490978884263D0D1480078CF49C4
:10117000087048F23040CF49088000207C234FF4AB
:10118000937264210090BA2006F045FFC8480078A9
:101190000A2824D2DFE800F005080B0E1114171AF4
:1011A0001D20AFF2A4141AE0AFF2A01417E0AFF2C2
:1011B000981414E0AFF2941411E0AFF28C140EE026
:1011C000AFF288140BE0AFF2801408E0AFF27C14A9
:1011D00005E0AFF2741402E0AFF2701400BF00BF7C
:1011E000182003466C226421CDE90004BA2007F0E0
:1011F000ACF900250DE0002607E00020AE4901EB28
:10120000C50141F82600701CC6B2022EF5DB681C31
:10121000C5B2072DEFDBA648007838B1A4480078A6
:10122000072803D0A2480078082801D1FFF7A9FCBD
:1012300000BF4FF6FF709F490880A04800680FF07C
:1012400077FE044618200323224640F276210090C0
:101250009C2007F0C2F89A48006800E01CE00FF0FC
:1012600067FE044618200323224640F276210090B0
:101270004FF4C67007F0B1F8924800680FF058FEBE
:10128000044618200323224640F28F2100904FF499
:10129000C67007F0A2F852E08348007802284ED1C9
:1012A00089480078012807D10122854801688348D0
:1012B0000068FFF78FFA12E083480078022807D110
:1012C00002227F4801687D480068FFF783FA06E044
:1012D00000227B48016879480068FFF77BFA4FF6E7
:1012E000FF7074490880754800680FF021FE0446BD
:1012F00018200323224640F2DB110090662007F0FD
:101300006CF86F4800680FF013FE044618200323A2
:10131000224640F2DB1100904FF4AB7007F05DF80D
:10132000684800680FF004FE044618200323224694
:101330004FF4FA7100904FF4AB7007F04EF84FF68F
:10134000FF705C4908805649086800210FF03CFF97
:101350000ED8534908680FF0EBFD0446182003230C
:101360002246142100904FF4C27007F036F819E0BD
:10137000002018232D22142100904FF4C27006F093
:1013800099FF4748006880F0004528460FF0D0FDDF
:101390000446182002232246142100904FF4C870FE
:1013A00007F01BF83F49086800210FF00DFF0ED829
:1013B0003C4908680FF0BCFD044618200323224670
:1013C000322100904FF4C27007F007F818E00020B7
:1013D00018232D22322100904FF4C27006F06AFFCC
:1013E0003048006880F0004528460FF0A1FD044613
:1013F00018200223224632210090C80006F0EDFF9B
:101400003249486900210FF0DFFE0DD82F494869A5
:101410000FF08EFD0446182005232246142100906B
:10142000BC2006F0DAFF17E0002018232D2214213B
:101430000090BC2006F03EFF2448406980F0004543
:1014400028460FF075FD0446182004232246142177
:101450000090C82006F0C1FF7CBD2DE9F041054693
:101460000E4690461F46002413E004F1010C36F8A6
:101470001C3035F81CC0BC441FFA8CF236F814102E
:1014800035F814C0BC441FFA8CF006F051FE601C05
:1014900084B2A8F10100A042E7DCBDE8F0810000C1
:1014A0002801002030010020040000200600002058
:1014B0001A0100209C000020DC01002044010020D3
:1014C00048010020500100201901002078B70020B9
:1014D000F8B505460E4614461F4604B9F8BD28194E
:1014E000401E82B2334631462846009706F093FDEF
:1014F00000BFF3E72DE9F05F0746884616469A4697
:1015000040F2C32070434FF47A71B0FBF1F000F168
:10151000010906FB06F000EB560B344671040A0C79
:10152000B91B88B253464146FFF7D2FF012535E08B
:1015300005FB05F004FB040058451AD94C4517D9A2
:101540006B1E5B041A0C08EB040399B27B1B5B1C3B
:1015500098B25346FFF7BCFF6B1E5B041A0CA8EB56
:10156000040399B27B1B5B1C98B25346FFF7B0FF94
:10157000641E63041A0C08EB050399B23B1B98B276
:101580005346FFF7A5FF63041A0CA8EB050399B2B5
:101590003B1B98B25346FFF79BFF6D1C4D45C7D9C7
:1015A000BDE8F09F2DE9FF4383B01E460E9FBDF8B6
:1015B0000C4004F141001FFA80F8BDF80E5005F10F
:1015C00024001FFA80F99DF8140000F08000002824
:1015D0006FD0F8480078F8490978884208D0F64872
:1015E0000078F44908700020F449087008714871C7
:1015F000F348C05DB0427FD0F148C6553EB1EF48D8
:10160000C05D08B9012000E00020EC49C855002069
:10161000EC4908809DF8140000F0080038B34CF243
:101620001863272229462046FFF764FFE348C05D80
:1016300038B140F2CF13242229462046FFF75AFF43
:1016400006E048F23043242229462046FFF752FFA5
:1016500018210498A5F10C02CDE9001091B2A4F173
:101660001E0290B218233C2206F06FFF44E04CF2B9
:1016700018604B46424629460090204606F0CBFCB7
:10168000CE48C05DB0B14FF60740A9F1030C1FFA78
:101690008CF3A8F1030C1FFA8CF205F1030C1FFA6E
:1016A0008CF104F1030C00901FFA8CF006F0B3FCEF
:1016B00015E026E048F23040A9F1030C1FFA8CF344
:1016C000A8F1030C1FFA8CF205F1030C1FFA8CF140
:1016D00004F1030C00901FFA8CF006F09CFC18211A
:1016E0000498AA1DCDE9001091B204F1090290B24C
:1016F0001823302206F029FFB048C05D07B0BDE8CE
:10170000F083AF48C05DB04271D0AD48C6550020EF
:10171000AC4908809DF8140000F0080028B34CF292
:101720001863272229462046FFF7E4FE3EB140F227
:10173000CF13242229462046FFF7DCFE06E048F2BC
:101740003043242229462046FFF7D4FE182104986E
:10175000A5F10C02CDE9001091B2A4F11E0290B2E5
:1017600018233C2206F0F1FE41E04CF218604B4693
:10177000424629460090204606F04DFCAEB14FF699
:101780000740A9F1030C1FFA8CF3A8F1030C1FFA10
:101790008CF205F1030C1FFA8CF104F1030C00909C
:1017A0001FFA8CF006F037FC14E048F23040A9F143
:1017B000030C1FFA8CF3A8F1030C1FFA8CF205F14D
:1017C000030C1FFA8CF104F1030C00901FFA8CF04B
:1017D00006F021FC18210498AA1DCDE9001091B251
:1017E00004F1090290B21823302206F0AEFE304612
:1017F00084E72DE9FF4182B09846BDF8084004F126
:10180000410086B2BDF80A5005F1240087B29DF868
:10181000100000F08000002850D0002069490880A6
:101820009DF8100000F00800E0B14CF21863272288
:1018300029462046FFF75EFE48F23043242229461F
:101840002046FFF757FE18210398A5F10C02CDE9B9
:10185000001091B2A4F11E0290B218233C2206F0AF
:1018600074FE7BE04CF218603B46324629460090FD
:10187000204606F0D0FB48F23040A7F1030C1FFAD7
:101880008CF3A6F1030C1FFA8CF205F1030C1FFA7E
:101890008CF104F1030C00901FFA8CF006F0BBFBF6
:1018A00018210398AA1DCDE9001091B204F1090294
:1018B00090B21823302206F048FE4FE00020414944
:1018C00008809DF8100000F00800E0B14CF21863A9
:1018D000272229462046FFF70DFE48F230432422F6
:1018E00029462046FFF706FE18210398A5F10C02B1
:1018F000CDE9001091B2A4F11E0290B218233C224F
:1019000006F023FE2AE04CF218603B463246294698
:101910000090204606F07FFB48F23040A7F1030C10
:101920001FFA8CF3A6F1030C1FFA8CF205F1030CDD
:101930001FFA8CF104F1030C00901FFA8CF006F0F2
:101940006AFB18210398AA1DCDE9001091B204F199
:10195000090290B21823302206F0F7FD06B0BDE868
:10196000F08138B5002422E004EB4400164901EB75
:1019700080050123009495E80700FFF713FE04EBB0
:101980004400114901EB80050023009495E807000D
:10199000FFF708FE04EB44000B4901EB800501232F
:1019A000009495E80700FFF7FDFD601CC4B2072C0A
:1019B000DADB38BD73000020040000207400002032
:1019C0006C0000209C000020180000203FB581B072
:1019D0001D46FE48416800208847FC4890F82000DA
:1019E00000F08000802842D19DF80C0000F0080033
:1019F000F8B1F6488189BDF804002738814216DD28
:101A0000F2488189BDF80400273081420FDAEF489F
:101A1000C18ABDF806002738814208DDEB48C18A3B
:101A2000BDF806002730814201DA012420E00024BD
:101A30001EE0E6488089BDF80410884215DDE348C1
:101A40008189BDF80400413081420EDADF48C08A46
:101A5000BDF80610884208DDDC48C18ABDF80600E2
:101A60002430814201DA012402E0002400E0002455
:101A70002346009501A807C8FFF794FD04462046B9
:101A800005B030BD0FB58BB00D990B98884217DCAF
:101A90000E990C98884213DCCD4801880B9881423E
:101AA0000EDBCB4801880D98814209DBC84841888C
:101AB0000C98814204DBC64841880E98814201DAC5
:101AC0000FB000BD0B990D98401AC117089000EB9C
:101AD0009170C0F38F000A900C990E98401AC117AC
:101AE000089000EB9170C0F38F00099001200090E6
:101AF0000998079000EBD07041101098089000EB07
:101B0000D070A1EB60010C98084480B204900A9850
:101B1000059000EBD07041101098C217069000EBB2
:101B20009270A1EBA0010B98084480B2039031227F
:101B3000109B049906F0BEFB0120009009980790C5
:101B400000EBD07041101098089000EBD070A1EB22
:101B500060010C98084480B204900A98059000EB4C
:101B6000D07041101098C217069000EB9270A1EB54
:101B7000A002DDE90A010844104480B20390322239
:101B8000109B049906F096FB01200090099807909D
:101B900000EBD07041101098089000EBD070A1EBD2
:101BA00060010C98084480B204900A98059000EBFC
:101BB000D07041101098C217069000EB9270A1EB04
:101BC000A002DDE90A0101EB4000104480B203905D
:101BD0003322109B049906F06DFB012000900998B8
:101BE000079000EBD07041101098089000EBD07077
:101BF000A1EB60010C98084480B204900A9805900B
:101C000000EBD07041101098C217069000EB927054
:101C1000A1EBA0010A9800EB40020B981044084485
:101C200080B203904322109B049906F043FB0120ED
:101C300000900998079000EBD07041101098089020
:101C400000EBD070A1EB60020C9909980844104495
:101C500080B204900A98059000EBD0704110109863
:101C6000C217069000EB9270A1EBA0010B980844FC
:101C700080B203903422109B049906F01BFB0120D4
:101C800000900998079000EBD070411010980890D0
:101C900000EBD070A1EB60020C9909980844104445
:101CA00080B204900A98059000EBD0704110109813
:101CB000C217069000EB9270A1EBA002DDE90A01C9
:101CC0000844104480B203903522109B049906F01A
:101CD000F1FA012000900998079000EBD0704110B4
:101CE0001098089000EBD070A1EB60020C99099855
:101CF0000844104480B204900A98059000EBD0701C
:101D000041101098C217069000EB9270A1EBA00250
:101D1000DDE90A0101EB4000104480B20390362255
:101D2000109B049906F0C6FA0120009009980790CC
:101D300000EBD07041101098089000EBD070A1EB30
:101D400060020C9909980844104480B204900A98E3
:101D5000059000EBD07041101098C217069000EB70
:101D60009270A1EBA0010A9800EB40020B9810447E
:101D7000084480B203902B22109B049906F09AFA33
:101D8000012000900998079000EBD0704110109846
:101D9000089000EBD070A1EB60020C99099801EB60
:101DA0004000104480B204900A98059000EBD07077
:101DB00041101098C217069000EB9270A1EBA001A1
:101DC0000B98084480B20390372203E0A40000205F
:101DD0005CB50020109B049906F06CFA012000907D
:101DE0000998079000EBD07041101098089000EB14
:101DF000D070A1EB60020C99099801EB40001044EF
:101E000080B204900A98059000EBD07041101098B1
:101E1000C217069000EB9270A1EBA002DDE90A0167
:101E20000844104480B203903822109B049906F0B5
:101E300041FA012000900998079000EBD070411002
:101E40001098089000EBD070A1EB60020C990998F3
:101E500001EB4000104480B204900A98059000EB1A
:101E6000D07041101098C217069000EB9270A1EB51
:101E7000A002DDE90A0101EB4000104480B20390AA
:101E80003922109B049906F015FA01200090099858
:101E9000079000EBD07041101098089000EBD070C4
:101EA000A1EB60020C99099801EB4000104480B24C
:101EB00004900A98059000EBD07041101098C2175A
:101EC000069000EB9270A1EBA0010A9800EB400293
:101ED0000B981044084480B203902D22109B049963
:101EE00006F0E8F9012000900998079000EBD07007
:101EF00041101098089000EBD070A1EB6001099898
:101F000000EB40020C981044084480B204900A98F8
:101F1000059000EBD07041101098C217069000EBAE
:101F20009270A1EBA0010B98084480B203902E227E
:101F3000109B049906F0BEF90120009009980790C3
:101F400000EBD07041101098089000EBD070A1EB1E
:101F50006001099800EB40020C981044084480B2DC
:101F600004900A98059000EBD07041101098C217A9
:101F7000069000EB9270A1EBA002DDE90A01084493
:101F8000104480B203903022109B049906F092F91D
:101F9000012000900998079000EBD0704110109834
:101FA000089000EBD070A1EB6001099800EB4002B3
:101FB0000C981044084480B204900A98059000EBF5
:101FC000D07041101098C217069000EB9270A1EBF0
:101FD000A002DDE90A0101EB4000104480B2039049
:101FE0003C22109B049906F065F9FEA01821CDE96A
:101FF00000100998079000EBD070411010980890DD
:1020000000EBD070A1EB6001099800EB40020C9846
:102010001044084480B204900A98059000EBD070F8
:1020200041101098069000EBD070A1EB60010A9867
:1020300000EB40020B981044084480B218231A4663
:102040000390049906F081FA00BF39E50FB58FB00F
:1020500000200E9018200D9047F67C50099000202B
:1020600008900F991198401AC117079000EB9170D2
:10207000C0F38F000C9010991298401AC117079066
:1020800000EB9170C0F38F000B90D7484068079029
:10209000002007998847D44890F8200000F080007D
:1020A000802841F07683D04881890F98814241F39E
:1020B0006D83CD4881891198814281F26783CA4836
:1020C000C18A10988142F2DDC748C18A12988142C4
:1020D000F3DAC548C18A1098814252DDC248C28AEB
:1020E0000B991098084482424BDABF4881890F98B7
:1020F000814209DDBC4882890C990F9808448242CC
:1021000002DA01200E9053E1B74882890C990F98AA
:10211000084482420ADDB44882890F990C9801EB89
:102120004000824202DA02200E9041E1AE488289EC
:102130000F990C9801EB400082420BDDAA4881897F
:102140000C9800EB40020F981044814202DA032001
:102150000E902DE1A44881890C9800EB40020F9865
:10216000104481420ADDA04882890F990C9801EB46
:102170008000824202DA0C200E9019E142200E907B
:1021800016E19948C28A0B9910980844824253DD9F
:102190009548C28A10990B9801EB400082424BDAB5
:1021A000914881890F98814209DD8F4882890C9975
:1021B0000F980844824202DA04200E90F8E08A4820
:1021C00082890C990F98084482420ADD86488289E8
:1021D0000F990C9801EB4000824202DA05200E9024
:1021E000E6E0814882890F990C9801EB4000824219
:1021F0000BDD7D4881890C9800EB40020F9810445C
:10220000814202DA06200E90D2E0774881890C984C
:1022100000EB40020F98104481420ADD7248828927
:102220000F990C9801EB8000824202DA0D200E908B
:10223000BEE042200E90BBE06B48C28A10990B981A
:1022400001EB4000824254DD6748C18A0B9800EBE5
:1022500040021098104481424BDA634881890F98FC
:10226000814209DD604882890C990F9808448242B6
:1022700002DA07200E909BE05B4882890C990F9848
:10228000084482420ADD584882890F990C9801EB74
:102290004000824202DA08200E9089E0524882898A
:1022A0000F990C9801EB400082420BDD4E4881896A
:1022B0000C9800EB40020F981044814202DA09208A
:1022C0000E9075E0484881890C9800EB40020F9809
:1022D000104481420ADD444882890F990C9801EB31
:1022E0008000824202DA0E200E9061E042200E90C1
:1022F0005EE03D48C18A0B9800EB40021098104404
:10230000814253DD3848C28A10990B9801EB800056
:1023100082424BDA344881890F98814209DD324884
:1023200082890C990F980844824202DA0A200E90A2
:102330003EE02D4882890C990F98084482420ADDBC
:10234000294882890F990C9801EB4000824202DAF9
:1023500000200E902CE0244882890F990C9801EB04
:10236000400082420BDD204881890C9800EB40023E
:102370000F981044814202DA0B200E9018E01A48A0
:1023800081890C9800EB40020F98104481420ADDCD
:10239000154882890F990C9801EB8000824202DA7D
:1023A0000F200E9004E042200E9001E042200E909B
:1023B0000E9810284ED2DFE800F0FD084E94FCFB8A
:1023C000FAF9F8F7F6F5DDF4F3F2099800900B99B5
:1023D00010980844401E80B207900C990F9808444A
:1023E000401E03E04F4B0000A400002080B2069086
:1023F0001098401C80B205900F98401C80B2049049
:1024000005A90EC905F007FE012000900B98069063
:1024100000EBD07041100D98079000EBD070A1EB4D
:1024200060011098084480B203900C98049000EB6F
:10243000D07041100D98C217059000EB9270A1EB7F
:10244000A0010F98084480B2029031220D9B03999D
:1024500005F030FF12E2099800900B99109808449B
:10246000401E80B207900F990C9801EB4000401E6F
:1024700080B206901098401C80B2059008460C99D6
:102480000844401C80B2049005A90EC905F0C3FDA4
:10249000012000900B98069000EBD07041100D9831
:1024A000079000EBD070A1EB60011098084480B257
:1024B00003900C98049000EBD07041100D98C21757
:1024C000059000EB9270A1EBA0020F990C980844C4
:1024D000104480B2029032220D9B039905F0EAFE6F
:1024E000B8E7099800900B9910980844401E80B2F4
:1024F00007900C9800EB40010F980844401E80B2F2
:1025000006901098401C80B205900F990C9801EB32
:102510004000401C80B2049005A90EC905F07BFD67
:10252000012000900B98069000EBD07041100D98A0
:10253000079000EBD070A1EB60011098084480B2C6
:1025400003900C98049000EBD07041100D98C217C6
:10255000059000EB9270A1EBA0020F990C9801EB93
:102560004000104480B2029033220D9B039905F085
:10257000A1FEFDE3099800900B9910980844401EB5
:1025800080B207900F990C9801EB8000401E80B23A
:1025900006901098401C80B205900C980BE092E3D6
:1025A00054E21DE13DE3A3E2FFE1B0E167E1C9E0F0
:1025B0007DE036E0E6E200EB40010F980844401C65
:1025C00080B2049005A90EC905F025FD01200090F8
:1025D0000B98069000EBD07041100D98079000EB1F
:1025E000D070A1EB60011098084480B203900C9861
:1025F000049000EBD07041100D98C217059000EBCD
:102600009270A1EBA0010C9800EB40020F981044CF
:10261000084480B2029043220D9B039905F04AFEC4
:10262000A6E30998009010990B9801EB4000401E1A
:1026300080B207900C990F980844401E80B2069013
:102640000B9910980844401C80B205900F98401CCC
:1026500080B2049005A90EC905F0DDFC01200090B0
:102660000B98069000EBD07041100D98079000EB8E
:10267000D070A1EB600210990B980844104480B20E
:1026800003900C98049000EBD07041100D98C21785
:10269000059000EB9270A1EBA0010F98084480B266
:1026A000029034220D9B039905F004FE60E3099823
:1026B000009010990B9801EB4000401E80B20790EB
:1026C0000F990C9801EB4000401E80B206900B99C8
:1026D00010980844401C80B205900C990F9808444B
:1026E000401C80B2049005A90EC905F094FC01209D
:1026F00000900B98069000EBD07041100D98079059
:1027000000EBD070A1EB600210990B9808441044C4
:1027100080B203900C98049000EBD07041100D989B
:10272000C217059000EB9270A1EBA0020F990C98D4
:102730000844104480B2029035220D9B039905F0A5
:10274000B9FD15E30998009010990B9801EB400032
:10275000401E80B207900C9800EB40010F9808448F
:10276000401E80B206900B9910980844401C80B21D
:1027700005900F990C9801EB4000401C80B204902A
:1027800005A90EC905F047FC012000900B980690A2
:1027900000EBD07041100D98079000EBD070A1EBCA
:1027A000600210990B980844104480B203900C9872
:1027B000049000EBD07041100D98C217059000EB0B
:1027C0009270A1EBA0020F990C9801EB400010440D
:1027D00080B2029036220D9B039905F06BFDC7E293
:1027E0000998009010990B9801EB4000401E80B2B0
:1027F00007900F990C9801EB8000401E80B2069064
:102800000B9910980844401C80B205900C9800EB7E
:1028100040010F980844401C80B2049005A90EC9DD
:1028200005F0F9FB012000900B98069000EBD070AA
:1028300041100D98079000EBD070A1EB6002109949
:102840000B980844104480B203900C98049000EB5D
:10285000D07041100D98C217059000EB9270A1EB5B
:10286000A0010C9800EB40020F981044084480B27D
:1028700002902B220D9B039905F01CFD78E209982C
:1028800000900B9800EB40011098084480B207902C
:102890000C990F980844401E80B2069010990B982E
:1028A00001EB4000401C80B205900F98401C80B2A4
:1028B000049005A90EC905F0AEFB012000900B980D
:1028C000069000EBD07041100D98079000EBD0708F
:1028D000A1EB600210990B9801EB4000104480B20C
:1028E00003900C98049000EBD07041100D98C21723
:1028F000059000EB9270A1EBA0010F98084480B204
:10290000029037220D9B039905F0D4FC30E2099820
:1029100000900B9800EB400110980844401E80B2D4
:1029200007900F990C9801EB4000401E80B2069072
:1029300010990B9801EB4000401C80B205900C9957
:102940000F980844401C80B2049005A90EC905F0F8
:1029500062FB012000900B98069000EBD0704110B4
:102960000D98079000EBD070A1EB600210990B98C6
:1029700001EB4000104480B203900C98049000EBEF
:10298000D07041100D98C217059000EB9270A1EB2A
:10299000A0020F990C980844104480B2029038228B
:1029A0000D9B039905F086FCE2E1099800900B98D5
:1029B00000EB400110980844401E80B207900C982C
:1029C00000EB40010F980844401E80B20690109919
:1029D0000B9801EB4000401C80B205900F990C98B9
:1029E00001EB4000401C80B2049005A90EC905F01F
:1029F00012FB012000900B98069000EBD070411064
:102A00000D98079000EBD070A1EB600210990B9825
:102A100001EB4000104480B203900C98049000EB4E
:102A2000D07041100D98C217059000EB9270A1EB89
:102A3000A0020F990C9801EB4000104480B2029064
:102A400039220D9B039905F035FC91E1099800901E
:102A50000B9800EB400110980844401E80B207908C
:102A60000F990C9801EB8000401E80B206901099DF
:102A70000B9801EB4000401C80B205900C9800EBD5
:102A800040010F980844401C80B2049005A90EC96B
:102A900005F0C1FA012000900B98069000EBD07071
:102AA00041100D98079000EBD070A1EB60021099D7
:102AB0000B9801EB4000104480B203900C980490F6
:102AC00000EBD07041100D98C217059000EB92708A
:102AD000A1EBA0010C9800EB40020F9810440844B1
:102AE00080B202902D220D9B039905F0E3FB3FE19C
:102AF0000998009010990B9801EB8000401E80B25D
:102B000007900C990F980844401E80B206900B98CD
:102B100000EB400110980844401C80B205900F98CB
:102B2000401C80B2049005A90EC905F074FA01207A
:102B300000900B98069000EBD07041100D98079014
:102B400000EBD070A1EB60010B9800EB40021098F5
:102B50001044084480B203900C98049000EBD070AD
:102B600041100D98C217059000EB9270A1EBA001E7
:102B70000F98084480B202902E220D9B039905F015
:102B800099FBF5E00998009010990B9801EB8000F3
:102B9000401E80B207900F990C9801EB4000401E38
:102BA00080B206900B9800EB400110980844401C3E
:102BB00080B205900C990F980844401C80B2049094
:102BC00005A90EC905F027FA012000900B98069080
:102BD00000EBD07041100D98079000EBD070A1EB86
:102BE00060010B9800EB400210981044084480B23A
:102BF00003900C98049000EBD07041100D98C21710
:102C0000059000EB9270A1EBA0020F990C9808447C
:102C1000104480B2029030220D9B039905F04AFBCC
:102C2000A6E00998009010990B9801EB8000401ED7
:102C300080B207900C9800EB40010F980844401EAA
:102C400080B206900B9800EB400110980844401C9D
:102C500080B205900F990C9801EB4000401C80B2A7
:102C6000049005A90EC905F0D6F9012000900B9833
:102C7000069000EBD07041100D98079000EBD070DB
:102C8000A1EB60010B9800EB40021098104408443F
:102C900080B203900C98049000EBD07041100D9816
:102CA000C217059000EB9270A1EBA0020F990C984F
:102CB00001EB4000104480B202903C220D9B03992E
:102CC00005F0F8FA54E00998009010990B9801EB80
:102CD0008000401E80B207900F990C9801EB800095
:102CE000401E80B206900B9800EB400110980844FB
:102CF000401C80B205900C9800EB40010F980844EE
:102D0000401C80B2049005A90EC905F084F9AFF605
:102D10002C101821CDE900100B98069000EBD07014
:102D200041100D98079000EBD070A1EB60010B985B
:102D300000EB400210981044084480B203900C98B5
:102D4000049000EBD07041100D98059000EBD0700E
:102D5000A1EB60010C9800EB40020F98104408446E
:102D600080B218231A460290039905F0EEFB00BFCB
:102D700000BF00200A9021E0F7480078A0B90120A8
:102D800007F036FFF548406807900020079988470C
:102D90000A98401C80B20A900A98B0F5167F0DDBA5
:102DA0000120ED49087010E00A98401C80B20A909A
:102DB0000A98782801DD42200E9006E0E74890F856
:102DC000200000F080008028D6D000BF0E98102888
:102DD00049D2DFE800F0FE08498FFDFCFBFAF9F864
:102DE000F7F6D8F5F4F3089800900B99109808447A
:102DF000401E80B207900C990F980844401E80B284
:102E000006901098401C80B205900F98401C80B22C
:102E1000049005A90EC905F0FEF8012000900B985A
:102E2000069000EBD07041100D98079000EBD07029
:102E3000A1EB60011098084480B203900C980490B4
:102E400000EBD07041100D98C217059000EB927006
:102E5000A1EBA0010F98084480B2029031220D9B93
:102E6000039905F027FA17E2089800900B9910983B
:102E70000844401E80B207900F990C9801EB400067
:102E8000401E80B206901098401C80B20590084603
:102E90000C990844401C80B2049005A90EC905F0A5
:102EA000BAF8012000900B98069000EBD07041100A
:102EB0000D98079000EBD070A1EB600110980844CA
:102EC00080B203900C98049000EBD07041100D98E4
:102ED000C217059000EB9270A1EBA0020F990C981D
:102EE0000844104480B2029032220D9B039905F0F1
:102EF000E1F9B8E7089800900B9910980844401E33
:102F000080B207900C9800EB40010F980844401ED7
:102F100080B206901098401C80B205900F990C98D2
:102F200001EB4000401C80B2049005A90EC905F0D9
:102F300072F8012000900B98069000EBD0704110C1
:102F40000D98079000EBD070A1EB60011098084439
:102F500080B203900C98049000EBD07041100D9853
:102F6000C217059000EB9270A1EBA0020F990C988C
:102F700001EB4000104480B2029033220D9B039974
:102F800005F098F988E1089800900B99109808448A
:102F9000401E80B207900F990C9801EB8000401EF4
:102FA00080B206901098401C80B205900C9800EBFF
:102FB00040010F980844401C80B20BE091E353E2BB
:102FC0001CE13CE3A2E2FEE1AFE166E1C8E077E0AC
:102FD00030E0E5E2049005A90EC905F01CF80120D7
:102FE00000900B98069000EBD07041100D98079060
:102FF00000EBD070A1EB60011098084480B2039000
:103000000C98049000EBD07041100D98C2170590F9
:1030100000EB9270A1EBA0010C9800EB40020F981E
:103020001044084480B2029043220D9B039905F09E
:1030300041F9AAE30898009010990B9801EB400021
:10304000401E80B207900C990F980844401E80B231
:1030500006900B9910980844401C80B205900F9878
:10306000401C80B2049005A90EC904F0D4FF0120D1
:1030700000900B98069000EBD07041100D980790CF
:1030800000EBD070A1EB600210990B98084410443B
:1030900080B203900C98049000EBD07041100D9812
:1030A000C217059000EB9270A1EBA0010F980844A5
:1030B00080B2029034220D9B039905F0FBF864E383
:1030C0000898009010990B9801EB4000401E80B2C8
:1030D00007900F990C9801EB4000401E80B20690BB
:1030E0000B9910980844401C80B205900C990F98D9
:1030F0000844401C80B2049005A90EC904F08BFF5F
:10310000012000900B98069000EBD07041100D98B4
:10311000079000EBD070A1EB600210990B98084467
:10312000104480B203900C98049000EBD0704110D2
:103130000D98C217059000EB9270A1EBA0020F99B9
:103140000C980844104480B2029035220D9B0399DC
:1031500005F0B0F819E300007B000020A400002077
:103160000898009010990B9801EB4000401E80B227
:1031700007900C9800EB40010F980844401E80B265
:1031800006900B9910980844401C80B205900F9946
:103190000C9801EB4000401C80B2049005A90EC9B8
:1031A00004F039FF012000900B98069000EBD070DE
:1031B00041100D98079000EBD070A1EB60021099C0
:1031C0000B980844104480B203900C98049000EBD4
:1031D000D07041100D98C217059000EB9270A1EBD2
:1031E000A0020F990C9801EB4000104480B20290AD
:1031F00036220D9B039905F05DF8C6E20898009011
:1032000010990B9801EB4000401E80B207900F9977
:103210000C9801EB8000401E80B206900B9910982C
:103220000844401C80B205900C9800EB40010F98B8
:103230000844401C80B2049005A90EC904F0EBFEBE
:10324000012000900B98069000EBD07041100D9873
:10325000079000EBD070A1EB600210990B98084426
:10326000104480B203900C98049000EBD070411091
:103270000D98C217059000EB9270A1EBA0010C987D
:1032800000EB40020F981044084480B202902B22B9
:103290000D9B039905F00EF877E2089800900B98C3
:1032A00000EB40011098084480B207900C990F98E9
:1032B0000844401E80B2069010990B9801EB400024
:1032C000401C80B205900F98401C80B2049005A964
:1032D0000EC904F0A0FE012000900B98069000EBB0
:1032E000D07041100D98079000EBD070A1EB6002F8
:1032F00010990B9801EB4000104480B203900C9899
:10330000049000EBD07041100D98C217059000EBAF
:103310009270A1EBA0010F98084480B2029037226E
:103320000D9B039904F0C6FF2FE2089800900B98BC
:1033300000EB400110980844401E80B207900F999E
:103340000C9801EB4000401E80B2069010990B983B
:1033500001EB4000401C80B205900C990F98084486
:10336000401C80B2049005A90EC904F054FE01204F
:1033700000900B98069000EBD07041100D980790CC
:1033800000EBD070A1EB600210990B9801EB4000AC
:10339000104480B203900C98049000EBD070411060
:1033A0000D98C217059000EB9270A1EBA0020F9947
:1033B0000C980844104480B2029038220D9B039967
:1033C00004F078FFE1E1089800900B9800EB4001D1
:1033D00010980844401E80B207900C9800EB400102
:1033E0000F980844401E80B2069010990B9801EB8C
:1033F0004000401C80B205900F990C9801EB4000F2
:10340000401C80B2049005A90EC904F004FE0120FE
:1034100000900B98069000EBD07041100D9807902B
:1034200000EBD070A1EB600210990B9801EB40000B
:10343000104480B203900C98049000EBD0704110BF
:103440000D98C217059000EB9270A1EBA0020F99A6
:103450000C9801EB4000104480B2029039220D9B81
:10346000039904F027FF90E1089800900B9800EB77
:10347000400110980844401E80B207900F990C98A4
:1034800001EB8000401E80B2069010990B9801EB72
:103490004000401C80B205900C9800EB40010F9852
:1034A0000844401C80B2049005A90EC904F0B3FD85
:1034B000012000900B98069000EBD07041100D9801
:1034C000079000EBD070A1EB600210990B9801EB14
:1034D0004000104480B203900C98049000EBD07030
:1034E00041100D98C217059000EB9270A1EBA0015E
:1034F0000C9800EB40020F981044084480B20290F0
:103500002D220D9B039904F0D5FE3EE10898009012
:1035100010990B9801EB8000401E80B207900C9927
:103520000F980844401E80B206900B9800EB4001B3
:1035300010980844401C80B205900F98401C80B23F
:10354000049005A90EC904F066FD012000900B98B7
:10355000069000EBD07041100D98079000EBD070F2
:10356000A1EB60010B9800EB400210981044084456
:1035700080B203900C98049000EBD07041100D982D
:10358000C217059000EB9270A1EBA0010F980844C0
:1035900080B202902E220D9B039904F08BFEF4E082
:1035A0000898009010990B9801EB8000401E80B2A3
:1035B00007900F990C9801EB4000401E80B20690D6
:1035C0000B9800EB400110980844401C80B2059015
:1035D0000C990F980844401C80B2049005A90EC9AC
:1035E00004F019FD012000900B98069000EBD070BC
:1035F00041100D98079000EBD070A1EB60010B9883
:1036000000EB400210981044084480B203900C98DC
:10361000049000EBD07041100D98C217059000EB9C
:103620009270A1EBA0020F990C980844104480B24C
:10363000029030220D9B039904F03CFEA5E008980F
:10364000009010990B9801EB8000401E80B207900B
:103650000C9800EB40010F980844401E80B2069081
:103660000B9800EB400110980844401C80B2059074
:103670000F990C9801EB4000401C80B2049005A902
:103680000EC904F0C8FC012000900B98069000EBD6
:10369000D07041100D98079000EBD070A1EB600145
:1036A0000B9800EB400210981044084480B203903D
:1036B0000C98049000EBD07041100D98C217059043
:1036C00000EB9270A1EBA0020F990C9801EB400067
:1036D000104480B202903C220D9B039904F0EAFD55
:1036E00053E00898009010990B9801EB8000401E61
:1036F00080B207900F990C9801EB8000401E80B2B9
:1037000006900B9800EB400110980844401C80B2D2
:1037100005900C9800EB40010F980844401C80B2C3
:10372000049005A90EC904F076FC1EA01821CDE96D
:1037300000100B98069000EBD07041100D98079088
:1037400000EBD070A1EB60010B9800EB40021098E9
:103750001044084480B203900C98049000EBD070A1
:1037600041100D98059000EBD070A1EB60010C9812
:1037700000EB40020F981044084480B218231A4608
:103780000290039904F0E1FE00BF07E042200E9092
:1037900004E000200449087042200E900E9840B2C8
:1037A00013B000BD4F4B00007B00002000210160E2
:1037B00041600181704701460889322801D101200A
:1037C00070470020FCE70146088908B901207047CE
:1037D0000020FCE701460889704770B506460C4694
:1037E0002046FFF7E8FF08B1002070BD082000F078
:1037F000E3F805460DB90020F7E72E800020686049
:103800002046FFF7E0FF28B1256065602089401C55
:10381000208105E06068456065602089401C20814A
:103820000120E2E770B504462046FFF7CCFF08B15F
:10383000002070BD2568206840682060284600F0A0
:10384000AFF82089401E2081208908B900206060DF
:103850000120EEE710B5044602E02046FFF7E2FF44
:103860002046FFF7B0FF0028F7D010BD70B5034623
:103870000C4603E014F8015B03F8015B1500A2F1AC
:103880000102F7D170BD30B5034601E003F8011B1A
:103890001400A2F10102F9D130BD00B55A494FF42C
:1038A0002862C8680021FFF7EEFF57494FF428420D
:1038B00088680021FFF7E7FF01205349087400BD25
:1038C0000022002106E05048C06830F8110000B125
:1038D000521C491CB1F5A86FF5D3642050434FF436
:1038E000A863B0FBF3F0C0B270472DE9F041064683
:1038F0000024A0464448007C10B94349086880472A
:103900001EB94FF0FF30BDE8F081C6F34F1506F049
:103910001F0008B1681C85B240F23F541AE03A48D3
:10392000C06830F8140020B908F101001FFA80F8CF
:1039300001E04FF00008A8450BD1002705E0324810
:10394000C068E11920F811507F1CAF42F7D3600125
:10395000D9E7641E002CE2DA4FF0FF30D3E770B5F0
:1039600005462948007C20B927490868804701207E
:1039700070BDB5F5284F11D269092348C06830F8E9
:103980001120002406E000201F4BDB680E1923F8ED
:103990001600641C9442F6DB0020E9E70220E7E70A
:1039A00070B5044604B970BD17488068251A2846CA
:1039B000FFF7D5FF00BFF6E770B505462846FFF7CD
:1039C00094FF0446601C08B9002070BD0E48806852
:1039D0002044FAE770B506460C462046FFF785FFFF
:1039E0000546681C08B9002070BD07498968481958
:1039F00022463146FFF73AFF3046FFF7D1FF024833
:103A000080682844F0E700007C00002008B5012110
:103A1000442007F0EFFE1C20ADF8000048208DF890
:103A200003006946264807F029FC08BD10B5044686
:103A300014B10120234908702248007848B31021AE
:103A40001F4807F0AEFC48B108211D4807F0A9FC4B
:103A500020B104211A4807F0A4FCD0B90A2007F0CD
:103A6000C7F80020174908701021154807F099FC85
:103A700008B9012010BD0821114807F092FC08B9CF
:103A80000220F7E704210E4807F08BFCA8B90320B9
:103A9000F0E710210A4807F084FC01280DD1082125
:103AA000074807F07EFC012807D10421044807F0ED
:103AB00078FC012801D1034908700020DAE70000F2
:103AC000001801409000002008B50121482007F0AF
:103AD00091FE2020ADF8000010208DF80300032097
:103AE0008DF8020069461A4807F0C8FB20211848E3
:103AF00007F071FC2020ADF800006946154807F07A
:103B0000BDFB2021134807F066FC08BD1249096877
:103B1000491C114A1160814208D110490968C94302
:103B20000F4AC2F8941100210B4A116070470D49E9
:103B30000968491C0B4A1160814208D10A49096889
:103B4000C9430A4AC2F894110021064A116070471D
:103B5000000C014000180140940000209481214293
:103B6000008021429800002094012342000023425B
:103B7000F74908807047F649891C0880704708B5E6
:103B8000F348801C00880090BDF8000008BDF04A92
:103B90001080921C1180704710B504462046FFF734
:103BA000E7FF052007F035F8FFF7E9FF10BDE9480A
:103BB0000089E74908807047E549891C08807047FB
:103BC00030B5014601F01F04C1F34513CA0AE502EE
:103BD00005EB43151544A8B230BD00BF0100A0F1AC
:103BE0000102D0B2FAD1704710B503460C46D9484D
:103BF000808849F24131884205D0D648808845F214
:103C00001031884214D1D3494889FFF7B1FF181207
:103C1000FFF7B1FFD8B2FFF7AEFFCE498889FFF7B3
:103C2000A7FF2012FFF7A7FFE0B2FFF7A4FFABE06A
:103C3000C848808846F6040188421DD1C54880796D
:103C4000012804D1C3480088401EC01A83B2C1496C
:103C50004889FFF78DFF1812FFF78DFFD8B2FFF7E5
:103C60008AFFBC498889FFF783FF2012FFF783FF93
:103C7000E0B2FFF780FF87E0B648808841F6631125
:103C8000884247D1B3488079A8B9B2480088401E1D
:103C9000C01A83B2AF494889FFF76AFF0020FFF7D7
:103CA0006AFF0020FFF767FF1812FFF764FFD8B222
:103CB000FFF761FF16E0A7494889FFF759FF18127F
:103CC000FFF759FFD8B2FFF756FFA2490988491EEE
:103CD000C1F30F20FFF74FFF9E490978491EC8B274
:103CE000FFF749FF9B498889FFF742FF2012FFF742
:103CF00042FFE0B2FFF73FFF96494988491EC1F3F2
:103D00000F20FFF738FF93498978491EC8B2FFF7A3
:103D100032FF39E08F48808845F21051884220D127
:103D20008C494889FFF724FF1812FFF724FF8949BF
:103D30004989491C88B2FFF71BFFD8B2FFF71BFF68
:103D400084498889FFF714FF2012FFF714FF814987
:103D50008989491C88B2FFF70BFFE0B2FFF70BFF20
:103D600012E07C488079012804D17A480088401EFE
:103D7000C01A83B2774948891946FFF708FF754989
:103D800088892146FFF703FF10BD2DE9F041054664
:103D90000E4600240027A0466E480088A84203DD96
:103DA0006C484088B04202DC0020BDE8F08131461A
:103DB0002846FFF719FF6748808849F24131884259
:103DC00011D06448808846F6040188420BD06148CF
:103DD000808845F21031884205D05E48808841F6DF
:103DE0006311884203D12E20FFF7C2FE0DE059482F
:103DF000808845F21051884204D14FF43850FFF7C3
:103E0000B7FE02E02220FFF7B3FE5248808849F255
:103E10002031884202D10220FFF7DFFEFFF7AFFE1C
:103E200004464C48808841F66311884201D12046FF
:103E3000BBE70220FFF7D1FEFFF7A1FE044645488D
:103E4000808849F2413188420BD04248808845F24F
:103E50001031884205D03F48808845F21051884291
:103E60000AD10220FFF7B9FEFFF789FE8046E7B2CC
:103E70004FF6FF7000EA07273648808849F225315F
:103E8000884216D03348808844F23551884210D099
:103E900030488088091F88420BD02E4880884BF21A
:103EA0000551884205D02B4880884CF20551884244
:103EB00001D1204679E72748808849F2413188427C
:103EC0000BD02448808845F21031884205D0214823
:103ED000808845F21051884207D1E012C002B91221
:103EE00040EA411040EAE8205FE72046FFF768FE1D
:103EF0005BE700B51748808849F24131884211D00C
:103F00001448808846F6040188420BD01148808806
:103F100045F21031884205D00E48808841F6631181
:103F2000884203D12920FFF723FE0FE0094880884B
:103F300045F21051884204D14FF42450FFF718FE87
:103F400004E040F273110720FFF721FE00BD0000DE
:103F5000FE07006C5CB5002000B5FD48808849F282
:103F60004131884211D0FA48808846F604018842DF
:103F70000BD0F748808845F21031884205D0F448CC
:103F8000808841F66311884203D12820FFF7F0FDB5
:103F90000EE0EF48808845F21051884204D14FF47A
:103FA0002050FFF7E5FD03E000210720FFF7EFFDBC
:103FB00000BD70B5044600230026E548807901283D
:103FC0000BD1E348808846F60401884205D0E048DA
:103FD000808841F66311884208D1DD488079F0B9C4
:103FE000DB48808841F66311884218D1082C15D22D
:103FF000DFE804F00406080A0C0E101206240DE097
:1040000007240BE0042409E0052407E0012405E06F
:10401000002403E0032401E0022400BF00BFCC48D9
:10402000808849F24131884217D0C948808846F6D5
:104030000401884211D0C648808845F21031884278
:104040000BD0C348808845F21051884205D0C04843
:10405000808841F6631188427ED1082C1CD2DFE8AB
:1040600004F00406090C0F12151800BF14E043F009
:10407000800311E043F040030EE043F0C0030BE087
:1040800043F0200308E043F0600305E043F0A003A1
:1040900002E043F0E00300BF00BFAD48808845F276
:1040A0001051884202D14FF4585600E03626A848F5
:1040B000808845F2103188420DD0A548808845F2AD
:1040C0001051884207D0A248808841F66311884287
:1040D00001D043F008039E48808846F604018842D8
:1040E00001D143F0020319463046FFF750FD9848CE
:1040F000808841F6631188421DD003F0200068B12A
:104100009348008892494988884214DA9048058883
:1041100040888F490880084645800CE08C4800881C
:104120008B494988884206DD894805884088884946
:104130000880084645808648808845F210518842AC
:1041400054D183494889FFF713FD0020FFF713FD81
:104150007F494989491C00E077E088B2FFF708FDF4
:104160000020FFF708FD7A494989891C88B2FFF7CA
:10417000FFFC77490988491EC1F30F20FFF7FBFCBC
:1041800073494989C91C88B2FFF7F2FC7049097864
:10419000491EC8B2FFF7EFFC6D498889FFF7E8FCBC
:1041A0000020FFF7E8FC6A498989491C88B2FFF7BB
:1041B000DFFC0020FFF7DFFC65498989891C88B294
:1041C000FFF7D6FC62494988491EC1F30F20FFF76B
:1041D000D2FC5F498989C91C88B2FFF7C9FC5C49D8
:1041E0008978491EC8B2FFF7C6FC55E0584948898E
:1041F000FFF7BEFC0020FFF7BEFC0020FFF7BBFC72
:1042000053490988491EC1F30F20FFF7B4FC5049F8
:104210000978491EC8B2FFF7AEFC4D498889FFF7FF
:10422000A7FC0020FFF7A7FC0020FFF7A4FC4849EB
:104230004988491EC1F30F20FFF79DFC4449897846
:10424000491EC8B2FFF797FC26E0082C1CD2DFE815
:1042500004F004070A0D0F12151843F0300313E0A1
:1042600043F0100310E043F020030DE000BF0BE02B
:1042700043F0380308E043F0280305E043F0180357
:1042800002E043F0080300BF00BF032643F480535D
:1042900019463046FFF77BFC70BD30B504460D462D
:1042A00029462046FFF7A0FCFFF781FC294800883B
:1042B0002949088030BD30B503460C4615462448D0
:1042C000808849F24131884205D02148808845F2F2
:1042D0001031884214D11E494889FFF749FC181251
:1042E000FFF749FCD8B2FFF746FC19498889FFF768
:1042F0003FFC2012FFF73FFCE0B2FFF73CFC93E0ED
:104300001348808845F21051884227D110494889C6
:10431000FFF72EFC1812FFF72EFC0D494989491CA6
:1043200088B2FFF725FCD8B2FFF725FC0849888939
:10433000FFF71EFC2012FFF71EFC05498989491C66
:1043400088B2FFF715FCE0B2FFF715FC6CE0000047
:104350005CB500209C0000200008006CFC488088B0
:1043600041F66311884228D1F948807920B9F8488C
:104370000088401EC01A83B2F5494889FFF7F8FB50
:104380001812FFF7F8FBD8B2FFF7F5FB1812FFF78A
:10439000F2FBD8B2FFF7EFFBED498889FFF7E8FBA6
:1043A0002012FFF7E8FBE0B2FFF7E5FB2012FFF772
:1043B000E2FBE0B2FFF7DFFB36E0E548808846F637
:1043C000040188421DD1E2488079012804D1E048E7
:1043D0000088401EC01A83B2DD494889FFF7C8FB38
:1043E0001812FFF7C8FBD8B2FFF7C5FBD849888978
:1043F000FFF7BEFB2012FFF7BEFBE0B2FFF7BBFBEF
:1044000012E0D3488079012804D1D1480088401EA9
:10441000C01A83B2CE4948891946FFF7B8FBCC4988
:1044200088892146FFF7B3FBC9480089C94908803C
:10443000881C058030BD2DE9F0470446BE20FFF7FB
:1044400097FB0520FFF797FB20460CF05FF8074627
:104450004FF06632C04B0CF0A9F805460CF012F88C
:104460001FFA80F94846FFF786FB0120FFF783FB20
:10447000FF20FFF780FB0020FFF77DFB0020FFF708
:104480007AFBBDE8F08710B50446002C66D1B04930
:104490008871F02008804FF4A0704880084680881A
:1044A00049F2413188420BD0A948808846F6040180
:1044B000884205D0A648808845F2103188421AD13A
:1044C0002C20A34908812A2048812B208881084676
:1044D000808846F60401884205D09D48808845F2D0
:1044E0001031884206D14FF4A070994908804FF4EA
:1044F000F0704880A1E09648808845F210518842CB
:1045000010D14FF43050924908814FF4285048811F
:104510004FF42C5088814FF4F07008804FF44870AD
:1045200048808AE08A48808841F6631188420DD12C
:104530002C20874908812B2048812A2088814FF42C
:10454000F07008804FF44870488076E0222080495F
:10455000088120204881212088816EE001207C494B
:1045600088714FF4A0700880F02048800846808849
:1045700049F24131884205D07548808845F21031B2
:10458000884207D12C20724908812A2048812B209B
:1045900088813FE06E48808846F60401884207D152
:1045A0002C206B4908812B2048812A20888131E00A
:1045B0006748808845F21051884210D14FF430503E
:1045C000634908814FF4285048814FF42C5088816A
:1045D0004FF4487008804FF4F07048801AE05C484F
:1045E000808841F6631188420DD12C2058490881FA
:1045F0002A2048812B2088814FF4487008804FF48E
:10460000F070488006E0222051490881212048812D
:10461000202088814E48808846F60401884205D0D3
:104620004B48808845F21031884206D14FF4F07033
:10463000474908804FF4A07048800020FFF7B9FC7C
:1046400010BD2DE9F04F86B004460D4690469946C0
:1046500004EB0800401E86B205EB0900401E87B23D
:104660003B48808849F24131884215D038488088DB
:1046700045F2103188420FD03548808846F6040153
:10468000884209D032488079012826D13048808874
:1046900041F66311884220D12D494889FFF768FA15
:1046A0002012FFF768FAE0B2FFF765FA3012FFF761
:1046B00062FAF0B2FFF75FFA25498889FFF758FAE6
:1046C0002812FFF758FAE8B2FFF755FA3812FFF749
:1046D00052FAF8B2FFF74FFABEE01D48808841F663
:1046E000631188423AD11A480088A0EB0800001BE9
:1046F00084B205EB0900401E1FFA80F9144948896D
:10470000FFF736FA2012FFF736FAE0B2FFF733FA76
:1047100004EB0801491EC1F30F20FFF72CFA04EB4C
:104720000801491EC8B2FFF726FA09498889FFF730
:104730001FFA2812FFF71FFAE8B2FFF71CFA4FEA38
:104740002920FFF718FA09F0FF00FFF714FA83E0B9
:104750005CB50020FE07006C66660440FE48808859
:1047600045F21051884244D1FB494889FFF700FACD
:104770002012FFF700FAF8494989491C88B2FFF76F
:10478000F7F9E0B2FFF7F7F9F3494989891C88B2D4
:10479000FFF7EEF93012FFF7EEF9EF494989C91C2E
:1047A00088B2FFF7E5F9F0B2FFF7E5F9EA49888941
:1047B000FFF7DEF92812FFF7DEF9E7498989491C7E
:1047C00088B2FFF7D5F9E8B2FFF7D5F9E249898950
:1047D000891C88B2FFF7CCF93812FFF7CCF9DE4913
:1047E0008989C91C88B2FFF7C3F9F8B2FFF7C3F98A
:1047F00032E0D948807901280ED1AA46BB46D64876
:104800000088801B401E80B20190D3480088001BA6
:10481000401E80B2009003E0A246B3460195009787
:104820005020059051200490522003905320029074
:1048300051460598FFF7ABF959460498FFF7A7F9D9
:1048400001990398FFF7A3F900990298FFF79FF9E0
:1048500029462046FFF7C8F906B0BDE8F08F70B5CD
:1048600004460026BC48058840884543BA488088ED
:1048700046F60401884216D1B7488079012812D142
:104880000020B54988712A2048812B208881002189
:104890000846FFF7A9F90120AF4988712B2048810C
:1048A0002A20888103E000210846FFF79DF9FFF7E1
:1048B0007EF9002602E0A9480480761CAE42FAD3B5
:1048C00070BD00B59FB00121080206F086FF0121EE
:1048D0004FF4B47006F08EFF0120ADF87800102080
:1048E0008DF87B0003208DF87A001EA99C4806F005
:1048F000C5FC4CF23370ADF8780018208DF87B00C1
:1049000003208DF87A001EA9964806F0B7FC4FF6F2
:104910008070ADF8780018208DF87B0003208DF8AA
:104920007A001EA9904806F0A9FC41F20100ADF8FA
:10493000780018208DF87B0003208DF87A001EA9DE
:104940008A4806F09BFC01200890002009900F2067
:104950000A9000200B900C900D900E900190029008
:1049600003200390002004900590069007900620F5
:104970000F900020109011901020129000201390A2
:1049800015901490169017904FF4805018900020B6
:1049900019904FF480401A9000201B9008A81C909A
:1049A00001A81D900FA808F0E7F80121062008F0E3
:1049B0004BFA322006F01CF90020FFF7EDF86649AB
:1049C000888008468088FF280ADB084680884FF6E2
:1049D000FF71884204D060488088B0F5134F7CD1C5
:1049E000D320FFF7C5F8FFF7CAF85B498880FFF7C7
:1049F000C6F859498880FFF7C2F8574988800846A9
:104A000080884FF6FF7101EA002053498880FFF744
:104A1000B6F85149898808434F49888008468088FC
:104A200049F24131884258D0BF20FFF7A1F8FFF783
:104A3000A6F849498880FFF7A2F847498880FFF720
:104A40009EF845498880FFF79AF8434988800846D0
:104A500080884FF6FF7101EA00203F498880FFF708
:104A60008EF83D49898808433B49888008468088FC
:104A700046F60401884230D0D420FFF779F8FFF7DA
:104A80007EF835498880FFF77AF833498880FFF748
:104A900076F831498880084680884FF6FF7101EA30
:104AA00000202D498880FFF76AF82B498988084340
:104AB000294988800846808845F21031884263D0B1
:104AC0004FF45A40FFF754F8FFF759F8224988800D
:104AD0004FF45B40FFF74CF800E055E0FFF74FF86C
:104AE0001D498880084680884FF6FF7101EA002042
:104AF000194988804FF45C40FFF73AF8FFF73FF818
:104B00001549898808431449888008468088B0F58B
:104B1000004F02D145F2105088800F48808845F23E
:104B20001051884230D0A120FFF722F8FFF727F874
:104B300009498880FFF723F807498880084680885C
:104B40004FF6FF7101EA002003498880FFF717F84C
:104B50000149898808430BE05CB500200008006C1F
:104B6000000C0140001401400018014000200140E9
:104B7000FE4988800846808845F26171884203D1E9
:104B800041F66310F9498880F848808849F241313C
:104B900088427CD1CF20FEF7EBFF0020FEF7EBFF31
:104BA000C120FEF7E8FF3020FEF7E5FFED20FEF71D
:104BB000DFFF6420FEF7DFFF0320FEF7DCFF12209B
:104BC000FEF7D9FF8120FEF7D6FFE820FEF7D0FFE1
:104BD0008520FEF7D0FF1020FEF7CDFF7A20FEF7EC
:104BE000CAFFCB20FEF7C4FF3920FEF7C4FF2C20FC
:104BF000FEF7C1FF0020FEF7BEFF3420FEF7BBFF2B
:104C00000220FEF7B8FFF720FEF7B2FF2020FEF7E4
:104C1000B2FFEA20FEF7ACFF0020FEF7ACFF002059
:104C2000FEF7A9FFC020FEF7A3FF1B20FEF7A3FF9E
:104C3000C120FEF79DFF0120FEF79DFFC520FEF776
:104C400097FF3020FEF797FF3020FEF794FFC72034
:104C5000FEF78EFFB720FEF78EFF3620FEF788FFA7
:104C60004820FEF788FF3A20FEF782FF5520FEF726
:104C700082FFB120FEF77CFF0020FEF77CFF1A20A8
:104C8000FEF779FFB620FEF773FF0A2000E099E0F7
:104C9000FEF771FFA220FEF76EFFF220FEF768FF1D
:104CA0000020FEF768FF2620FEF762FF0120FEF7D6
:104CB00062FFE020FEF75CFF0F20FEF75CFF2A207A
:104CC000FEF759FF2820FEF756FF0820FEF753FF96
:104CD0000E20FEF750FF0820FEF74DFF5420FEF790
:104CE0004AFFA920FEF747FF4320FEF744FF0A20B2
:104CF000FEF741FF0F20FEF73EFF0020FEF73BFFCF
:104D00000020FEF738FF0020FEF735FF0020FEF7F9
:104D100032FFE120FEF72CFF0020FEF72CFF1520CC
:104D2000FEF729FF1720FEF726FF0720FEF723FFD7
:104D30001120FEF720FF0620FEF71DFF2B20FEF7B7
:104D40001AFF5620FEF717FF3C20FEF714FF052040
:104D5000FEF711FF1020FEF70EFF0F20FEF70BFFEE
:104D60003F20FEF708FF3F20FEF705FF0F20FEF76C
:104D700002FF2B20FEF7FCFE0020FEF7FCFE0020C9
:104D8000FEF7F9FE0120FEF7F6FE3F20FEF7F3FEE8
:104D90002A20FEF7EDFE0020FEF7EDFE0020FEF7D4
:104DA000EAFE0020FEF7E7FEEF20FEF7E4FE11200A
:104DB000FEF7DEFE782005F01BFF2920FEF7D8FE67
:104DC00003F01DB96948808846F6040188427CD109
:104DD0001120FEF7CDFE142005F00AFFD020FEF7CB
:104DE000C7FE0720FEF7C7FE4220FEF7C4FE1D20C7
:104DF000FEF7C1FED120FEF7BBFE0020FEF7BBFE92
:104E00001A20FEF7B8FE0920FEF7B5FED220FEF705
:104E1000AFFE0120FEF7AFFE2220FEF7ACFEC02061
:104E2000FEF7A6FE1020FEF7A6FE3B20FEF7A3FE2F
:104E30000020FEF7A0FE0220FEF79DFE1120FEF7E7
:104E40009AFEC520FEF794FE0320FEF794FEC820CC
:104E5000FEF78EFE0020FEF78EFE2520FEF78BFE6D
:104E60002120FEF788FE0520FEF785FE0020FEF7D4
:104E700082FE0A20FEF77FFE6520FEF77CFE2520DD
:104E8000FEF779FE7720FEF776FE5020FEF773FEE0
:104E90000F20FEF770FE0020FEF76DFEF820FEF7F3
:104EA00067FE0120FEF767FEFE20FEF761FE002090
:104EB000FEF761FE0220FEF75EFE2020FEF758FEA0
:104EC0003620FEF755FE082000E02CE0FEF753FEEA
:104ED0003A20FEF74DFE5520FEF74DFE2B20FEF743
:104EE00047FE0020FEF747FE0020FEF744FE0120AB
:104EF000FEF741FE3F20FEF73EFE2A20FEF738FE79
:104F00000020FEF738FE0020FEF735FE0120FEF7F8
:104F100032FEDF20FEF72FFE782005F069FE292003
:104F2000FEF726FE4CE71148808845F21031884292
:104F300040F07C87ED20FEF71BFE0120FEF71BFEF4
:104F4000FE20FEF718FEEE20FEF712FEDE20FEF732
:104F500012FE2120FEF70FFEF120FEF709FE0120D0
:104F6000FEF709FEDF20FEF703FE01E05CB500203E
:104F70001020FEF700FEC420FEF7FAFD8F20FEF79A
:104F8000FAFDC620FEF7F4FD0020FEF7F4FDE22056
:104F9000FEF7F1FDE220FEF7EEFDE220FEF7EBFD6D
:104FA000BF20FEF7E5FDAA20FEF7E5FDB020FEF7E5
:104FB000DFFD0D20FEF7DFFD0020FEF7DCFD0D20FC
:104FC000FEF7D9FD0020FEF7D6FD1120FEF7D3FD38
:104FD0000020FEF7D0FD1920FEF7CDFD0020FEF7E2
:104FE000CAFD2120FEF7C7FD0020FEF7C4FD2D20DD
:104FF000FEF7C1FD0020FEF7BEFD3D20FEF7BBFD24
:105000000020FEF7B8FD5D20FEF7B5FD0020FEF79D
:10501000B2FD5D20FEF7AFFD0020FEF7ACFDB12034
:10502000FEF7A6FD8020FEF7A6FD0020FEF7A3FDFB
:105030008B20FEF7A0FD0020FEF79DFD9620FEF7D9
:105040009AFD0020FEF797FDB220FEF791FD0020AB
:10505000FEF791FD0020FEF78EFD0220FEF78BFD8E
:105060000020FEF788FD0320FEF785FD0020FEF7F7
:1050700082FDB320FEF77CFD0020FEF77CFD0020C2
:10508000FEF779FD0020FEF776FD0020FEF773FDA8
:105090000020FEF770FD0020FEF76DFD0020FEF7FA
:1050A0006AFD0020FEF767FD0020FEF764FD00208A
:1050B000FEF761FD0020FEF75EFD0020FEF75BFDC0
:1050C0000020FEF758FD0020FEF755FD0020FEF7FA
:1050D00052FD0020FEF74FFD0020FEF74CFD0020A2
:1050E000FEF749FD0020FEF746FD0020FEF743FDD8
:1050F0000020FEF740FD0020FEF73DFD0020FEF7FA
:105100003AFD0020FEF737FDB420FEF731FD8B207D
:10511000FEF731FD0020FEF72EFD9620FEF72BFD59
:105120000020FEF728FDA120FEF725FD0020FEF758
:1051300022FDB520FEF71CFD0220FEF71CFD00201D
:10514000FEF719FD0320FEF716FD0020FEF713FD04
:105150000420FEF710FD0020FEF70DFDB620FEF73F
:1051600007FD0020FEF707FD0020FEF704FDB72035
:10517000FEF7FEFC0020FEF7FEFC0020FEF7FBFC25
:105180003F20FEF7F8FC0020FEF7F5FC5E20FEF75E
:10519000F2FC0020FEF7EFFC6420FEF7ECFC0020A0
:1051A000FEF7E9FC8C20FEF7E6FC0020FEF7E3FCAE
:1051B000AC20FEF7E0FC0020FEF7DDFCDC20FEF773
:1051C000DAFC0020FEF7D7FC7020FEF7D4FC0020AC
:1051D000FEF7D1FC9020FEF7CEFC0020FEF7CBFCC2
:1051E000EB20FEF7C8FC0020FEF7C5FCDC20FEF734
:1051F000C2FC0020FEF7BFFCB820FEF7B9FC00207F
:10520000FEF7B9FC0020FEF7B6FC0020FEF7B3FC69
:105210000020FEF7B0FC0020FEF7ADFC0020FEF7FA
:10522000AAFC0020FEF7A7FC0020FEF7A4FCBA2091
:10523000FEF79EFC2420FEF79EFC0020FEF79BFC60
:105240000020FEF798FC0020FEF795FCC120FEF739
:105250008FFC2020FEF78FFC0020FEF78CFC5420F2
:10526000FEF789FC0020FEF786FCFF20FEF783FC9A
:105270000020FEF780FCC220FEF77AFC0A20FEF731
:105280007AFC0020FEF777FC0420FEF774FC002077
:10529000FEF771FCC320FEF76BFC3C20FEF76BFCB5
:1052A0000020FEF768FC3A20FEF765FC0020FEF7C0
:1052B00062FC3920FEF75FFC0020FEF75CFC372023
:1052C000FEF759FC0020FEF756FC3C20FEF753FC8D
:1052D0000020FEF750FC3620FEF74DFC0020FEF7C4
:1052E0004AFC3220FEF747FC0020FEF744FC2F204A
:1052F000FEF741FC0020FEF73EFC2C20FEF73BFCB5
:105300000020FEF738FC2920FEF735FC0020FEF7D0
:1053100032FC2620FEF72FFC0020FEF72CFC242078
:10532000FEF729FC0020FEF726FC2420FEF723FCD4
:105330000020FEF720FC2320FEF71DFC0020FEF7D6
:105340001AFC3C20FEF717FC0020FEF714FC362068
:10535000FEF711FC0020FEF70EFC3220FEF70BFCDE
:105360000020FEF708FC2F20FEF705FC0020FEF7CA
:1053700002FC2C20FEF7FFFB0020FEF7FCFB29209F
:10538000FEF7F9FB0020FEF7F6FB2620FEF7F3FB05
:105390000020FEF7F0FB2420FEF7EDFB0020FEF7D7
:1053A000EAFB2420FEF7E7FB0020FEF7E4FB2320C6
:1053B000FEF7E1FB0020FEF7DEFBC420FEF7D8FB82
:1053C0006220FEF7D8FB0020FEF7D5FB0520FEF794
:1053D000D2FB0020FEF7CFFB8420FEF7CCFB0020A1
:1053E000FEF7C9FBF020FEF7C6FB0020FEF7C3FB6B
:1053F0001820FEF7C0FB0020FEF7BDFBA420FEF73F
:10540000BAFB0020FEF7B7FB1820FEF7B4FB002024
:10541000FEF7B1FB5020FEF7AEFB0020FEF7ABFB22
:105420000C20FEF7A8FB0020FEF7A5FB1720FEF7D7
:10543000A2FB0020FEF79FFB9520FEF79CFB0020BF
:10544000FEF799FBF320FEF796FB0020FEF793FB97
:10545000E620FEF790FB0020FEF78DFBC520FEF74F
:1054600087FB3220FEF787FB0020FEF784FB4420F9
:10547000FEF781FB0020FEF77EFB6520FEF77BFB3D
:105480000020FEF778FB7620FEF775FB0020FEF784
:1054900072FB8820FEF76FFB0020FEF76CFBC62036
:1054A000FEF766FB2020FEF766FB0020FEF763FB9D
:1054B0001720FEF760FB0020FEF75DFB0120FEF7E2
:1054C0005AFB0020FEF757FBC720FEF751FB0020D8
:1054D000FEF751FB0020FEF74EFB0020FEF74BFBD2
:1054E0000020FEF748FBC820FEF742FB0020FEF735
:1054F00042FB0020FEF73FFB0020FEF73CFB0020B4
:10550000FEF739FBC920FEF733FB0020FEF733FB23
:105510000020FEF730FB0020FEF72DFB0020FEF7F9
:105520002AFB0020FEF727FB0020FEF724FB0020CB
:10553000FEF721FB0020FEF71EFB0020FEF71BFB01
:105540000020FEF718FB0020FEF715FB0020FEF7F9
:1055500012FB0020FEF70FFB0020FEF70CFB0020E3
:10556000FEF709FB0020FEF706FBE020FEF700FB3C
:105570001620FEF700FB0020FEF7FDFA1C20FEF7C8
:10558000FAFA0020FEF7F7FA2120FEF7F4FA0020DD
:10559000FEF7F1FA3620FEF7EEFA0020FEF7EBFAFE
:1055A0004620FEF7E8FA0020FEF7E5FA5220FEF763
:1055B000E2FA0020FEF7DFFA6420FEF7DCFA0020B2
:1055C000FEF7D9FA7A20FEF7D6FA0020FEF7D3FAD2
:1055D0008B20FEF7D0FA0020FEF7CDFA9920FEF7D7
:1055E000CAFA0020FEF7C7FAA820FEF7C4FA002086
:1055F000FEF7C1FAB920FEF7BEFA0020FEF7BBFAAB
:10560000C420FEF7B8FA0020FEF7B5FACA20FEF76C
:10561000B2FA0020FEF7AFFAD220FEF7ACFA002073
:10562000FEF7A9FAD920FEF7A6FA0020FEF7A3FAA2
:10563000E020FEF7A0FA0020FEF79DFAF320FEF727
:105640009AFA0020FEF797FAE120FEF791FA162069
:10565000FEF791FA0020FEF78EFA1C20FEF78BFA77
:105660000020FEF788FA2220FEF785FA0020FEF7D8
:1056700082FA3620FEF77FFA0020FEF77CFA4520FA
:10568000FEF779FA0020FEF776FA5220FEF773FA59
:105690000020FEF770FA6420FEF76DFA0020FEF796
:1056A0006AFA7A20FEF767FA0020FEF764FA8B2088
:1056B000FEF761FA0020FEF75EFA9920FEF75BFA2A
:1056C0000020FEF758FAA820FEF755FA0020FEF752
:1056D00052FAB920FEF74FFA0020FEF74CFAC42028
:1056E000FEF749FA0020FEF746FACA20FEF743FA11
:1056F0000020FEF740FAD220FEF73DFA0020FEF728
:105700003AFAD820FEF737FA0020FEF734FAE02004
:10571000FEF731FA0020FEF72EFAF320FEF72BFAFF
:105720000020FEF728FAE220FEF722FA0520FEF715
:1057300022FA0020FEF71FFA0B20FEF71CFA0020C9
:10574000FEF719FA1B20FEF716FA0020FEF713FAEF
:105750003420FEF710FA0020FEF70DFA4420FEF781
:105760000AFA0020FEF707FA4F20FEF704FA00209D
:10577000FEF701FA6120FEF7FEF90020FEF7FBF9C3
:105780007920FEF7F8F90020FEF7F5F98820FEF7FA
:10579000F2F90020FEF7EFF99720FEF7ECF9002070
:1057A000FEF7E9F9A620FEF7E6F90020FEF7E3F997
:1057B000B720FEF7E0F90020FEF7DDF9C220FEF782
:1057C000DAF90020FEF7D7F9C720FEF7D4F9002058
:1057D000FEF7D1F9D120FEF7CEF90020FEF7CBF984
:1057E000D620FEF7C8F90020FEF7C5F9DD20FEF748
:1057F000C2F90020FEF7BFF9F320FEF7BCF9002044
:10580000FEF7B9F9E320FEF7B3F90520FEF7B3F987
:105810000020FEF7B0F90A20FEF7ADF90020FEF7F0
:10582000AAF91C20FEF7A7F90020FEF7A4F93320FF
:10583000FEF7A1F90020FEF79EF94420FEF79BF940
:105840000020FEF798F95020FEF795F90020FEF7AA
:1058500092F96220FEF78FF90020FEF78CF978208C
:10586000FEF789F90020FEF786F98820FEF783F914
:105870000020FEF780F99720FEF77DF90020FEF763
:105880007AF9A620FEF777F90020FEF774F9B72021
:10589000FEF771F90020FEF76EF9C220FEF76BF9F2
:1058A0000020FEF768F9C720FEF765F90020FEF733
:1058B00062F9D120FEF75FF90020FEF75CF9D520F0
:1058C000FEF759F90020FEF756F9DD20FEF753F9EF
:1058D0000020FEF750F9F320FEF74DF90020FEF707
:1058E0004AF9E420FEF744F90120FEF744F90020CC
:1058F000FEF741F90120FEF73EF90020FEF73BF9E3
:105900000220FEF738F90020FEF735F92A20FEF7CD
:1059100032F90020FEF72FF93C20FEF72CF9002089
:10592000FEF729F94B20FEF726F90020FEF723F9B0
:105930005D20FEF720F90020FEF71DF97420FEF728
:105940001AF90020FEF717F98420FEF714F9002059
:10595000FEF711F99320FEF70EF90020FEF70BF980
:10596000A220FEF708F90020FEF705F9B320FEF7A4
:1059700002F90020FEF7FFF8BE20FEF7FCF8002039
:10598000FEF7F9F8C420FEF7F6F80020FEF7F3F86A
:10599000CD20FEF7F0F80020FEF7EDF8D320FEF75B
:1059A000EAF80020FEF7E7F8DD20FEF7E4F8002033
:1059B000FEF7E1F8F320FEF7DEF80020FEF7DBF853
:1059C000E520FEF7D5F80020FEF7D5F80020FEF719
:1059D000D2F80020FEF7CFF80020FEF7CCF8022026
:1059E000FEF7C9F80020FEF7C6F82920FEF7C3F835
:1059F0000020FEF7C0F83C20FEF7BDF80020FEF7BF
:105A0000BAF84B20FEF7B7F80020FEF7B4F85D2097
:105A1000FEF7B1F80020FEF7AEF87420FEF7ABF801
:105A20000020FEF7A8F88420FEF7A5F80020FEF776
:105A3000A2F89320FEF79FF80020FEF79CF8A22022
:105A4000FEF799F80020FEF796F8B320FEF793F8DA
:105A50000020FEF790F8BE20FEF78DF80020FEF73C
:105A60008AF8C420FEF787F80020FEF784F8CD20DE
:105A7000FEF781F80020FEF77EF8D320FEF77BF8D2
:105A80000020FEF778F8DC20FEF775F80020FEF71E
:105A900072F8F320FEF76FF80020FEF76CF8E620AE
:105AA000FEF766F81120FEF766F80020FEF763F8AF
:105AB0003420FEF760F80020FEF75DF85620FEF770
:105AC0005AF80020FEF757F87620FEF754F8002029
:105AD000FEF751F87720FEF74EF80020FEF74BF85E
